:1000000000800020A10000009D000000F100000021
:100010009D0000009D0000009D0000009D0000006C
:100020009D0000009D000000F81F00009D000000E2
:100030009D0000002C2000009D0000009D0000009D
:1000400010B5054C237833B9044B13B1044800E0D4
:1000500000BF0123237010BD080100200000000034
:100060009021000008B5034B1BB10349034800E091
:1000700000BF08BD000000000C010020902100001E
:10008000044B054A9A60D3F8882042F47002C3F802
:100090008820704700ED00E000000000FEE700004F
:1000A00008B5FFF7EDFF00F08FF80A4A0A4B0B493D
:1000B0008B4206D300210A4B0A4A934206D300F032
:1000C0001BF852F8040F43F8040BF1E743F8041B44
:1000D000F3E700BF9021000000010020080100208C
:1000E000080100202401002000F084BA00F0D2BAF8
:1000F0004FF4017001F024BF07B501A800F068FAC1
:10010000294B9B6DDB0318D4284A136823F4FF03A3
:1001100023F4FE4343F4BC1343F4A063136052F88A
:10012000043C23F4704343F4404342F8043C52F847
:10013000043C43F4E06342F8043C9DF80530012B95
:100140000FD19DF8043063B94FF000531B68184B72
:100150001B68184B1B68184B1B68184B1B68184B07
:100160001B68FFF7C1FF01F0E4FE00F0C3FD30B9EA
:1001700040F2012001F0E4FE4FF401700AE0114B5F
:100180000193019B002B0BDC40F205439842F3D115
:1001900040F2032001F0D4FE002003B05DF804FB20
:1001A000019B013BECE700BF00C0004034C00040B1
:1001B000004000200080002000C00020000001203E
:1001C0000040012000350C0008B54FF04023D3F863
:1001D00094305B060BD4012344F20402126801320E
:1001E00014D1BDE808404FF4027001F09BBE01F04D
:1001F000BFFEA0F2022080B20728ECD8012303FA48
:1002000000F010F0C90F18BF0023E5E793B14FF4D9
:10021000804001F067FD0028E3D04FF48043064A98
:1002200093601846016881F3088881F30988406863
:100230008746FEE708BD00BF00ED00E000207047E4
:1002400030B501240025074B01445C609D601A61B4
:100250001A46DC60884201D1586A30BD10F8014B63
:100260001462F7E700800840F8B504461D461646BC
:100270000F4600F01AFADDE90612204600F01BFADC
:10028000002384F83870636232682B0CC4F839207C
:100290007268C4F83D20B26884F845302B0AC4F86F
:1002A000412084F8463084F84750F8BD30B51D46EB
:1002B00085B000F12803CDE90112009300F124027A
:1002C00000F13803294600F07BFA05B030BD00008C
:1002D0002DE9F04798B0884617469946209E8246F9
:1002E00000285DD000295BD0002A59D0002B55D0C2
:1002F0002D4D2E4B002E08BF1D461C22002111A89B
:1003000001F065FE2A4B18AC44F8203D29462046F2
:1003100000F036F92021204600F032F90122254B69
:10032000CDF8049002920393049605920693B9F1D6
:10033000000F08D03EB101A9204600F00DF904A934
:10034000204600F009F901261A4D07A92046CDF8EC
:100350001CA00896099500F0FFF80AA92046CDF8E0
:1003600028800B960C950D970E960F9500F0F4F8DB
:100370000DA9204600F0F0F8204600F00AF94FF0F1
:1003800098435A6CD202FCD55B6D40F2046013F4C2
:10039000702F08BF002018B0BDE8F087034DACE710
:1003A00040F20160F7E700BF1F2400801F24FC8497
:1003B000000001062000002010B5044600F006FCF5
:1003C0002046BDE81040002100F02ABC00F032BCFD
:1003D000014600F031BC000070B50D4C0D4E0E4DC5
:1003E000F36913EA050208D00C4A1A40002A14BF28
:1003F0006FF001004FF0FF3070BD03408B4204D01E
:10040000013CEDD16FF00200F6E71046F4E700BFC3
:1004100080969800000003400600010002000100E1
:1004200070B5134C6061E06943071DD40E1D096867
:10043000151FA1615DB90423294623612120FFF71F
:10044000CBFF58B9BDE870402120FFF7C5BF082198
:100450000846FFF7C1FF10B10423236170BD56F8B1
:10046000043B043DA361E5E74FF0FF30F6E700BF32
:100470000000034041F67132034B0121DA6342F27E
:100480000C029950704700BF0000034041F67132E2
:10049000044B0121DA6342F20C0299500022DA6324
:1004A000704700BF0000034038B541F671330E4C71
:1004B0000122E569E36341F20C03E250022360612B
:1004C00000212361212005F48035FFF785FF18B94D
:1004D00001462120FFF780FF42F20C030122E25087
:1004E0000DB10023E36338BD000003402DE9F8435C
:1004F000154641F67132164B8846DF690121DA63F1
:1005000041F20C020646DFF84C9007F48037995010
:1005100055B9284642F20C0201210D4B99500FB1FA
:100520000022DA63BDE8F88306F5005404EA090402
:10053000A41BAC4228BF2C46414622463046FFF75A
:100540006FFF0028E6D12644A0442D1BE0E700BF42
:100550000000034000E0FFFF436813B941607047AB
:100560005B685A68012AFBD159607047836813B9E8
:10057000816070475B685A68012AFBD159607047F7
:10058000C369032B9FBF00EB83020133D160C361BA
:100590007047C369042B15D84FF09842116CC902FB
:1005A000FCD504339B0013650168103B1160416862
:1005B0000C30116050F8041C034411604FF0984255
:1005C000984200D1704750F8041B1160F8E7000012
:1005D000054B5B69C3F38512827003F03F021B0B6E
:1005E00042700370704700BF00C00740004870476A
:1005F0006C20000000207047024BD86900F0010019
:10060000704700BF0000034008B50346084699182C
:10061000B1F5801F04D8194601F0CEFC002008BDBA
:1006200040F20240FBE78318B3F5801F10B50ED9E6
:1006300040F2024010BDC45801340AD104339A423A
:10064000F9D801F071FA0028F2D00020F2E7002377
:10065000F5E740F20340EDE738B541EA0003C3F3A4
:100660000C0304469BB90D18B5F5801F08D8204629
:1006700004F5005401F04AFAA54204D00028F6D14E
:1006800040F2024038BD0028FAD00020FAE740F2DC
:100690000440F7E7002070474FF098435A6CD202AD
:1006A000FCD5586D00F47020704718B12422002149
:1006B00001F08DBC704770B50E4615460446A0B1DA
:1006C00099B12422002101F082FC25F04003802B07
:1006D00002D0B5F5807F0BD12046EA0840F8045BD4
:1006E000314601F069FC002070BD6FF02100FBE78E
:1006F0006FF01F00F8E700002DE9F041884692B046
:1007000016461F46054600284ED0002A4CD0002B26
:100710004AD0046824F04003802B02D0B4F5807FD7
:1007200045D11C2200210BA801F051FC214B22498C
:100730000122B8F1010F18BF19462B1D0193E408DF
:100740001E4B0A9144F0005401A90AA80292039496
:10075000049605920693079708920993FFF7FCFE0B
:1007600004A90AA8FFF7F8FE07A90AA8FFF7FEFEEA
:1007700029680AA8C908FFF703FF10210AA8FFF794
:10078000FFFE00F0EBF8044650B90AA8FFF701FF9E
:10079000FFF782FF054600F0E3F8002D18BF2C4656
:1007A000204612B0BDE8F0816FF02104F8E76FF049
:1007B0001F04F5E7000101040001000410000020FF
:1007C0002DE9F04F9BB007468A469846DDF8949095
:1007D00016460AB31568002F00F0B480B9F1000F77
:1007E00000F0B080269B002B00F0AC80B8F1000F29
:1007F00000F0A880249B002B00F0A4803B6823F02D
:100800004002802A03D0B3F5807F40F09E8009EB40
:100810000A03002400930DE01546DCE795B1249A05
:1008200019F80430525D01355340269A05F00F0542
:10083000135501345445F1D3002E00F08980356002
:10084000002060E0AAEB040BBBF10F0F51D91C2272
:10085000294613A801F0BBFB3E4B3A6812933B1D9F
:1008600003930123D20842F00052049305923A4ABE
:100870002699CDF818802BF00F0B07930892CDF82E
:1008800024800A930B9209EB04020C9221444BF052
:1008900000520D9312A80E920F9103A9109311927A
:1008A000FFF75AFE06A912A8FFF756FE0CA912A8D8
:1008B000FFF752FE0FA912A8FFF758FE09A912A8C8
:1008C000FFF754FE396812A8C908FFF759FE5946C8
:1008D00012A8FFF755FE00F041F8A0B912A8FFF7E3
:1008E00058FEFFF7D9FE019000F03AF8019B5C44F6
:1008F00043B9269B09EB040B1C44009B5B4505D1C7
:10090000544697E718461BB0BDE8F08F7DB94246C4
:10091000249B01213846FFF7EFFE08F1100212F880
:10092000013D0133DBB213700BB99045F7D1249A26
:100930001BF8013B525D0135534004F8013B05F0C3
:100940000F05DAE76FF02100DDE76FF01F00DAE74F
:100950003046D8E703030004100000200020704751
:10096000002070472DE9F04192B005460F469046B1
:1009700000211C220BA81E46189C01F028FB012117
:100980004FF000528D42CDF80480029103920497FB
:10099000059106920796089109923BD003D3022D48
:1009A0004BD0274C32E0274B12A8A40140F8203D41
:1009B0002146FFF7E5FD039B1C430394069B43F090
:1009C00014030693099B43F0140304A90AA809938E
:1009D000FFF7C2FD01A90AA8FFF7BEFD07A90AA8F3
:1009E000FFF7C4FDFFF7BAFF044678B90AA8FFF77E
:1009F000D0FD4FF098435A6CD202FCD55D6DFFF7E5
:100A0000AFFF114B15F4702F18BF1C46204612B0D3
:100A1000BDE8F0810D4B12A8A40140F8203D21460D
:100A2000FFF7AEFD039B1C430394069B43F020039A
:100A30000693099B43F02003C7E712A8044BEBE79A
:100A400080AFFFFF0002010380ADFFFF0003010341
:100A5000000401032DE9F34702281446DDE90A9258
:100A600080460E461F464ED81CB9002002B0BDE895
:100A7000F08713683F2B42D8516809B1002F3ED14F
:100A8000B8F1010F3DD0224D2249B8F1020F18BF35
:100A90000D4603F03F00E318136022BF5368013393
:100AA000536090B3C0F1400A544522D331465246B8
:100AB000484401F081FA01234A46009329463B4607
:100AC0004046A4EB0A04FFF74DFF3F2C56440DD9D6
:100AD0003D46A309009332463B4629464046FFF770
:100AE00041FF24F03F031E4404F03F04002CBCD01F
:100AF000002022463146484401F05EFAB5E73D4603
:100B0000C7E7054DC5E70548B0E73F2CF1D9E0E759
:100B1000DE2000009E200000BE20000080AFFFFF0E
:100B20002DE9F041012886B004460E4690461D4648
:100B300004D045D3022841D022483CE01C272A6833
:100B4000CDE90085D3008DF80F3053098DF80E30B4
:100B5000530B8DF80D30530D8DF80C306B6820461B
:100B6000D90001EB52718DF80B1002F03F025909C8
:100B7000372A8DF80A104FEA53314FEA535394BF86
:100B8000C2F13802C2F178028DF809108DF80830F0
:100B90000D493346FFF75EFF082233460DEB020195
:100BA000CDE900852046FFF755FF3A4631460C98BF
:100BB00001F002FA002006B0BDE8F0812027BEE770
:100BC0001427BCE780AFFFFFFE20000018B16C22A5
:100BD000002101F0FCB9704707B590F8683001902A
:100BE000002B00F12803009300F1080314BF01203B
:100BF0000220FFF72FFF03B05DF804FB07B590F864
:100C000068200346002A009100F1280200F1080143
:100C100014BF01200220FFF783FF03B05DF804FB3F
:100C200000239942D4BF00210121C0E9003380F89C
:100C300068107047FFF7D0BFFFF7E0BF0020704794
:100C400000207047002070470020704728231B6851
:100C5000186970474FF4004070470120704710B585
:100C6000E0B04FF4C0726946002000F061F940F234
:100C700001240021684600F09EF8A042F9D040F21D
:100C80000323984203D040F2054060B010BD9DF8A8
:100C9000003003F00302022AF5D059070BD50A9859
:100CA00001F0ACF838B15C9800F074F918B1FFF7B6
:100CB000D1FF01F0CDF89DF800309A0710D5282219
:100CC00012680199926891420AD95C9800F07EF905
:100CD0000028D8D0FFF7BEFF099901F049F8D2E704
:100CE000DB07D0D503995C9800F092F90028CAD0B0
:100CF0000020CAE7FFF7B3BF00207047002070470D
:100D00000048704786E20F0031B10A4B5A688242B0
:100D100005D80023C1E9003340F20140704701309B
:100D200053F8302003EBC0035B680A604B6000207F
:100D3000704700BF8820000001221A707047000031
:100D400070B40D4C0E461146626882420DD90130D6
:100D500004EBC0025268F51895420AD854F83000E6
:100D60001A46304470BCFFF74FBC40F2014070BCE3
:100D7000704740F20240FAE78820000030B5044690
:100D80000D46A3B002AAD0F878118023D0F87001E4
:100D9000FFF7D6FF0095802302AA214604F12C001C
:100DA00000F0CAFAD4F87831C4F87C018033C4F872
:100DB000783123B030BD1FB50023CDE90033CDE934
:100DC0000213D0F87C310446A3B9D0F87821D0F8CA
:100DD00074319A420ED26946FFF7D0FFD4F87C01F5
:100DE00098B141F2070240F20123904208BF184631
:100DF00004B010BDA3785BB140F2022040F203239F
:100E0000E278002A18BF1846F2E740F20120EFE727
:100E100040F20220ECE7000070B50D46002186B0DC
:100E200006AB03F8111D02931E4B044616461160D3
:100E300028461C22CDE90333059301F0C8F89DF83C
:100E4000072062B994F87230132B08D0D4F87C31A3
:100E50002BB9D4F87811D4F8743199421AD3237885
:100E6000990744BF636833602378DB0709D504F131
:100E7000080304F1240153F8040B8B4245F8040BDA
:100E8000F9D162B9237840F20640002B18BF002048
:100E900006B070BD02A92046FFF770FFCFE7002023
:100EA000F6E700BF390D000070B40D4C0E46114638
:100EB000626882420DD9013004EBC0025268F51815
:100EC00095420AD854F830001A46304470BCFFF7F7
:100ED000AABB40F2014070BC704740F20240FAE702
:100EE00088200000074B5A68824207D9013003EB83
:100EF000C002516853F83000FFF7AEBB40F201402A
:100F0000704700BF8820000010B5044660B14FF460
:100F100080320023C0E90023044B1A785B68027218
:100F2000C360FFF763FB206110BD00BF8820000095
:100F300037B50C4605461146204600F0BDFF48B9BE
:100F400069462846FFF7E0FE20B9019BC4F87051BE
:100F5000C4F8743103B030BD38B500F58272044670
:100F60000D46202300F1BC012C3000F0ABF9D4F881
:100F70007C312BB9D4F87821D4F874319A4203D358
:100F8000A07800B1E07838BD29462046FFF7F6FE8C
:100F9000EDE7000000B5E5B04FF4C07204A9FFF71B
:100FA000C7FF70B904238DF81130074BCDE900005D
:100FB0000290694604A80393FFF7CEFF65B05DF881
:100FC00004FB0020FAE700BFA71C0000282300B59F
:100FD0001B68E5B09B688B4203D3002065B05DF8C9
:100FE00004FB4FF4C07204A9FFF7A2FF0028F4D15C
:100FF00002238DF81130054BCDE9000002906946BF
:1010000004A80393FFF7A8FFE8E700BFA71C0000B0
:1010100000B5E5B04FF4C07204A9FFF789FF70B9BD
:1010200001238DF81130074B0090CDE9013003907A
:10103000694604A8FFF790FF65B05DF804FB002047
:10104000FAE700BF871C000000234FF0FF32036067
:1010500001238B4201D30020704740F82320013345
:10106000F7E7036840F204500133012B98BF0020DA
:10107000704740F20250704770B5D1E90152AA4260
:1010800005D290F840302B449B1A402B10D90020F9
:1010900012E00A6890F84040D65C90F84120013395
:1010A000224402F03F02013486548B6080F84040B5
:1010B0008B689D42EDD8012070BD2DE9F84317469D
:1010C000D1E90125521B90F8405004462A4493422E
:1010D0000E469DF820909DF8248057D9FFF7CCFF4D
:1010E00000285DD1142341F2020084F84630BDE8A7
:1010F000F88394F84120A25C7A5594F84120013598
:10110000013202F03F0284F8412094F84020013A75
:1011100084F8402094F8402012B1AB42E9D11D463A
:10112000D6E901128A4201D2AB4231D8AB42D9D1C1
:10113000D4F8882029463846FFF782F8C4F888009A
:10114000B9F1000F04D02A463946E06CFFF73EF9AA
:10115000B8F1000F08D094F843302BB12B463A4633
:101160003946A06CFFF7A2F894F8433043B1E36D21
:10117000A26D2B449342E36524BF002384F84330DF
:10118000636D41F203001D446565B0E70025C1E7CA
:1011900031688A5C7A55B26801350132B260BFE7C6
:1011A0000020A4E77FB50023CDE9003308231546CE
:1011B0000DEB03020446FFF780FF41F20303984260
:1011C000064626D194F8433063B10822E06C0DEB5B
:1011D0000201FFF7FBF808230DEB03021146A06C98
:1011E000FFF764F8039A029B6A6094F843202B602F
:1011F0005AB9094A934208D0084A934205D00822B6
:10120000E06C0DEB0201FFF7E1F86B68236500234A
:101210006365304604B070BDF70A0AF7FC0404FCAD
:101220002DE9F843044658680D4616461F46002827
:1012300043D08B0743D1FFF709FD216E00F1040C69
:1012400006EB0109CC451DD800F11C02914219D2D0
:101250008C45634638BF0B46914594BFC3EB0909E3
:10126000C3EB0209591AA3EB0C0005EB0108683027
:101270004A464146204400F09FFE4A46FF21404630
:1012800000F0A5FEFFF7E6FC226E031D93420AD391
:10129000B1180830814206D39B1AEA58C4F880205E
:1012A0004FF0FF32EA50D7E900383246206E294627
:1012B000C0470020236E1E442666BDE8F88341F235
:1012C0000200FAE7F8B54FF0FF3615460022044653
:1012D0000F4603F0200380F84620A0F8402080F855
:1012E000432080F8452080F84420C0E9182280F887
:1012F0004230C0F888601822FF21683000F067FE95
:10130000C4F88060C4F88460C4E91275FFF79CFCDF
:1013100018B117B941F20B00F8BDFFF793FC30B1DB
:10132000002DF7D0E06CFFF747F80020F4E7002D20
:10133000F8D12846F0E700002DE9F04F9BB0039369
:10134000CDE907230023044688469946249EDFF80A
:1013500054A40993099A039B9A425AD294F84630AE
:10136000142BF8D8DFE813F08A009F008300C9002F
:1013700057003E00350039023E0033023E000302B2
:101380003E0033020A03A8031500730377039F028C
:10139000A8030027636D0F2B6ED80125102301973A
:1013A00000950AAA07A92046FFF787FE41F203032A
:1013B000984240F0A780D4F848B0FFF7A1FC802302
:1013C0000BAACDE9000302212B465846FEF74CFF3D
:1013D000E0E70125D4E914329A42C0F05E8184F836
:1013E0004650B7E70DF1280BD4E91452AA420999E7
:1013F00042D2089BAD1A94F840205B1A032D134487
:1014000040F2EF81032B00F2138207A92046FFF779
:1014100033FE002076E00125636D072B9AD8082360
:10142000CDE900550AAA07A92046FFF746FE41F27A
:101430000303984266D198F8003043F0020388F81D
:1014400000300A9BC8F80430236D083BC8F82430EC
:101450000B9B0493002B50D1052284F8462094F86E
:101460004520636642F0010284F84520D4E7002558
:10147000636D072B40F2DA80012311E005AA07A96A
:101480002046FFF78FFE41F2030398423AD1069BB4
:10149000059A236500236365B74B9A422DD1022339
:1014A00084F8463056E705AA07A92046FFF77AFEDA
:1014B00041F20303984225D194F84420059B22B1C0
:1014C000AE4A934219D10E23EAE794F84220D50799
:1014D00051D594F84320002A40F0F182A84A934263
:1014E00043D017D8A74A934207D00ED8A24A9342B6
:1014F00003D002F1B642934216D1142384F8463049
:1015000041F201001BB0BDE8F08F9F4A9342F4D036
:101510009E4AF0E79E4A93421DD00ED89D4A9342C0
:1015200078D09D4A934218D0142384F846300DEBAE
:101530000300FFF783FBD8B1E2E7984A9342DCD07F
:10154000974A9342D9D08D4A9342EDD1FFF77AFB67
:101550000028B8D0D1E71023A2E7112384F8463041
:10156000236DA3650023E365F4E6142384F8463075
:1015700041F20800C6E7854A934237D009D8814A2C
:10158000934231D0804A93422CD0534509D10B234A
:1015900086E77A4A93422DD000F2A1827D4A934297
:1015A00033D005A8FFF74AFBB0B31323059884F89E
:1015B0004630C4F88C00FFF743FB94F84230814674
:1015C00098067FF5C7AEB9F1000F3FF4C3AED9F866
:1015D0000430002B3FF4BEAE2046984700283FF46D
:1015E000B9AE8DE704235BE7062359E7072357E7E6
:1015F0000D2355E7FFF726FB00287FF47EAF94F814
:101600004330002B3FF45FAF77E794F84330002B73
:101610007FF473AF122343E7142384F8463094F821
:101620004330002BA4D041F204006BE70123019565
:1016300000930AAA082307A92046FFF73EFD41F2BE
:10164000030398427FF45EAF0A9B03F07F43B3F13C
:10165000407F05D0142341F2090084F8463051E759
:101660000B9BD90704930ED594F8423043F0010345
:1016700084F84230FFF7E6FA00283FF4F9AE049B05
:10168000DA0504D5F4E6FFF7DFFA0028F2D01423D8
:1016900041F20A0084F8463034E7CDE900550AAA41
:1016A00007A92046FFF709FD41F2030398427FF4A2
:1016B00029AF08F1080C63460AAF0DF1400E3A4617
:1016C00003CA724518605960174603F10803F6D142
:1016D0001068186098F80030604643F0010388F8FD
:1016E0000030FFF7BAFA00287FF474AE142341F2F9
:1016F0000C0084F8463005E701230CAACDE900333D
:1017000007A908232046FFF7D8FC41F203039842BB
:101710007FF4F8AE98F8003043F0040388F8003006
:101720000D9BC8F8283098F801305B071CD50020C5
:10173000236DCDF828A0C4F8843094F84530606655
:1017400043F0020384F84530F5686DB13368042234
:101750000AA9A8470822606E3368F5680CA91044EE
:10176000A847636E103363660C2384F84630636DBC
:10177000072BC1D9EEE500BFEB17A603FC0404FC60
:10178000F70909F7F40A0AF4F50909F5F60808F665
:10179000FA0606FAF70A0AF7F90707F9FD0303FD47
:1017A000FE0101FEEB17A65E0423CDE900550AAA4F
:1017B00007A92046FFF781FC41F2030398427FF41A
:1017C000A1AE226D0A9B042A049301D92366012548
:1017D000636D032BE8D90A2362E6002363660823BE
:1017E0005EE69D423FF611AE9D4228BF1D46012395
:1017F000032D88BF25F00305CDE900335A462B465B
:1018000007A92046FFF759FC41F2030398427FF4F1
:1018100079AE94F84630082B13D1B7688FB133688E
:101820002A465946606EB847636E1D446566DBE51F
:10183000402D28BF4025D7E74FF0FF320BF8052099
:101840000135032DF8D90A2B06D133462A465946CD
:101850002046FFF7E5FCC7E5052B18D198F80130C5
:101860009F077FF5C1ADF368002B3FF4BDAD626EFD
:10187000042A0AD85319062B07D90BAB9B1A1A68EE
:10188000C4F884204FF0FF321A60F768C7E70C2BCA
:101890007FF4AAAD98F8013058077FF5A5ADF76839
:1018A000002FBCD1A0E594F84230990607D5D4F8B2
:1018B0008C00FFF7C5F9814600283FF421AE0127CF
:1018C0003FE0002B58D0B9F1000F55D0D9F81030B7
:1018D000002B51D020469847DDE90853ED1A94F8C3
:1018E00040302B4498423FF690ADD4E91452AD1AE3
:1018F000402D28BF40259D4228BF1D46CDE90077D9
:101900002B460AAA07A92046FFF7D7FB41F203039B
:1019100098427FF4F7AD94F842309A0611D5B9F1A8
:10192000000F3FF4EDADD9F808B0BBF1000F3FF464
:10193000E7AD33462A460AA92046D84700287FF457
:10194000E1ADD4E9142194F84230914203F0200330
:10195000B7D3002B3FF490ADB9F1000F3FF48CAD3D
:10196000D9F80C30002B3FF487AD3146204698471C
:1019700000283FF481ADC5E50120ADE700230AAAA8
:10198000CDE9003307A904232046FFF796FB41F277
:10199000030398427FF4B6ADD4F88820554B9A42A1
:1019A00005D0142341F2050084F84630AAE5FFF77C
:1019B00049F910B9012388F8033098F80330002B57
:1019C0003ED094F845309B0707D0F5682DB104222E
:1019D000336804F184011046A847236E83B373680B
:1019E00073B34FF0FF331AAF47F8583D04F1800945
:1019F00004224946384600F0D0FA40B1FFF72AF9F0
:101A000028B1D6E90035042249461044A84704F11C
:101A1000680504222946384600F0BFFA80B177688D
:101A2000FFF714F93368142204F16C010830B84749
:101A30007768FFF70BF90422336829461044B8474A
:101A4000012388F802300F2384F84630E1E40123B3
:101A500084F8433024E594F84450002D7FF40CAD15
:101A60004023CDE900550AAA07A92046FFF725FB28
:101A700041F2030398427FF445ADE06CFEF7A8FC09
:101A8000E76CFFF739F98346FFF738F95B460090BA
:101A900012AA0AA93846FEF71BFC38B1142388F8AD
:101AA000035041F2060084F846302BE5012388F804
:101AB000033084F84430DFE441F2070022E50E4AA7
:101AC00093423FF493AD7FF65AAD0C4A93423FF4F4
:101AD00091AD04D80A4A93427FF463AD0DE5094AFB
:101AE00093423FF485AD084A93427FF45AAD0923EF
:101AF000D6E400BFE320BBDEF60808F6FC0404FCD5
:101B0000F70A0AF7FD0303FDFE0101FE10B50446C6
:101B1000FEF7B0FC2046FEF7C7FC0446FEF7B6FC15
:101B2000B4FA84F0400910BD40EA02039B0770B587
:101B300005460E4614460ED17AB1FEF79BFC2246AE
:101B400031462846FEF7D2FC0446FEF79FFCB4FA65
:101B500084F0400970BD0020FCE70120FAE74FF057
:101B600098435A6CD202FCD5586D00F4702070472F
:101B7000F0B585B06C46024626460D4B03F11007C2
:101B8000254618685968083303C5BB422C46F7D16F
:101B900004AB501E13F8011D10F8012F914204D11F
:101BA000B342F7D1012005B0F0BD0020FBE700BF34
:101BB00080210000C0F30C032DE9F04105460F46DB
:101BC00016460BB9FFF7A2FF05F5005424F4FF54A5
:101BD00024F01F0405EB0608A04506D83246394616
:101BE0002846BDE8F041FFF79FBF2046FFF78EFF74
:101BF00004F50054F0E738B504460D46FFF7B8FF8A
:101C000040B16369012B08D1237C012B05D8A3695E
:101C10002B6038BD2C600120FBE70020F9E730B5D0
:101C20009FB0044602A9406BFFF7E5FF38B32822B6
:101C30001268029B12699A4223D8A34221D3B3F5BA
:101C4000801F1ED803A8FEF7B7FB029A2146121B7D
:101C500003A8FEF7BBFB03A8FEF7BAFB029CFFF745
:101C60004BF80546FFF74AF82B46009004F1200296
:101C7000214603A8FEF72CFBB0FA80F040091FB004
:101C800030BD0020FBE770B4282424680346266991
:101C9000864206D8646913449C4202D370BCFFF7A5
:101CA00089BF70BC7047F8B5064615460F46FEF76B
:101CB000D1FF84196319B3F5801F11D84EB9FEF70F
:101CC000C9FF28231B685A69824202D91869FFF7A5
:101CD0001DFF2A4639462046BDE8F840FFF76ABF97
:101CE000F8BD000038B50368044603F16043B3F55E
:101CF000C03F01D9002038BD28231B6842681B69FA
:101D00009342F7D8B2F5801FF4D8456B4033AB420D
:101D100002D8B5F5801F05D9FEF790FA80F00100D2
:101D2000C0B2E8E7FEF78AFA20B12046BDE83840A5
:101D3000FFF775BF2846FFF71BFFA8B12B7C012BCF
:101D4000D8D86B69002BD6D0022BEED1AB69C4F189
:101D5000040119444FF0FF322046FEF771FA034B9D
:101D6000C31A58425841C6E70120C4E7E320BBDE4E
:101D700070B54FF0FF3290B006460D46FEF760FAA0
:101D80001B4B984231D11C22002101A800F01FF901
:101D9000184B10AC44F8403D20463146FEF7F0FBAE
:101DA00029462046FEF7ECFB2046FEF7F2FBFFF744
:101DB000D6FE0446C8B940F2022000F0B3F81C2257
:101DC000214609A800F003F90B4B10AC44F8203D64
:101DD00031462046FEF7D4FB29462046FEF7D0FBCD
:101DE0002046FEF7D6FBFFF7BAFE002010B070BD0C
:101DF000E320BBDE01000543010006434FF0FF3343
:101E000010B58CB01C220021044605A8009300F0F8
:101E1000DEF80D4BCDF804D00493012302930B4B55
:101E200001A904A80393FEF7A1FB04A8FEF7B1FBE8
:101E3000FFF795FE30B90098A0422CBF002001208A
:101E40000CB010BD0020FBE7000008430400002098
:101E500030B5054691B01C22002101A800F0B7F86A
:101E6000134B10AC44F8403D29462046FEF788FB52
:101E70002046FEF78EFBFFF772FE0446A8B940F23B
:101E8000022000F04FF81C22214609A800F09FF81C
:101E9000084B10AC44F8203D29462046FEF770FB65
:101EA0002046FEF776FBFFF75AFE002011B030BD4A
:101EB0000000024300000343B1F5C07F10B50446A3
:101EC00010D34FF4C072002100F081F8002304F514
:101ED0008272637004F1BC0104F12C00BDE8104073
:101EE000FFF7F0B940F2052010BD13B5044600918C
:101EF00001462C30FFF720FAC4F87C0118B141F2FA
:101F00000703984209D1A3784BB140F2032040F275
:101F10000223E278002A08BF184602B010BD40F242
:101F20000120FAE74FF000534FF20F0218805A8059
:101F300070474FF000534CF23C325A80704700001B
:101F40004FF000534FF20F0218805A80BFF34F8FAB
:101F50000549064BCA6802F4E0621343CB60BFF345
:101F60004F8F00BFFDE700BF00ED00E00400FA0561
:101F70004FF000534FF20F015A888A4201D118885E
:101F800070473AB91B8840F20220012B18BF4FF46A
:101F9000007070474FF40070704730B50024A242C3
:101FA00001D1002007E0035D01340D1915F8015C33
:101FB000AB42F4D0581B30BD431E0A4410B59142C9
:101FC00000D110BD11F8014B03F8014FF7E70244AF
:101FD0000346934200D1704703F8011BF9E7000064
:101FE000F8B500BFF8BC08BC9E467047F8B500BF06
:101FF000F8BC08BC9E46704707B0CD5E01000000EB
:1020000002000901A02100000040000000001000B3
:10201000F0000100E9000000ED000000E51C0000F8
:10202000B91E0000EB1E00004021000013B779FA32
:10203000C925DDB7ADF3CFE0F1B614B8010100005A
:10204000000000009C210000400000000200090187
:102050000000000000000000000000000000000080
:10206000000000000000000000000000010203006A
:1020700028000000280000000020000000001000E0
:102080009820000004000000010000000100000092
:102090000040080000A00700454652333200674563
:1020A0002301EFCDAB8998BADCFE10325476C3D24F
:1020B000E1F0000000000000000000000000C10589
:1020C0009ED8367CD5073070DD17F70E5939FFC022
:1020D0000B316858151164F98FA7BEFA4FA46A092D
:1020E000E667BB67AE853C6EF372A54FF53A510EBD
:1020F000527F9B05688C1F83D9AB5BE0CD198000B4
:1021000000000000000000000000000000000000CF
:1021100000000000000000000000000000000000BF
:1021200000000000000000000000000000000000AF
:10213000000000000000000000000000000000009F
:1021400000010000090F0000090D0000410D000012
:10215000A90E0000E50E0000631000004910000009
:1021600073100000310F0000B70D0000190E0000C1
:10217000F9050000090600002706000059060000C6
:10218000B814B6F1E0CFF3ADB7DD25C9FA79B713CE
:04219000000000004B
:0821940065000000410000009D
:04000003000000A158
:00000001FF
